{
  "address": "0x9bEEEf0E0605807406903f45813740b12f23B19d",
  "abi": [
    {
      "inputs": [
        {
          "internalType": "address",
          "name": "_owner",
          "type": "address"
        }
      ],
      "stateMutability": "nonpayable",
      "type": "constructor"
    },
    {
      "anonymous": false,
      "inputs": [
        {
          "indexed": true,
          "internalType": "address",
          "name": "creator",
          "type": "address"
        },
        {
          "indexed": false,
          "internalType": "uint256",
          "name": "value",
          "type": "uint256"
        }
      ],
      "name": "ProfileCreated",
      "type": "event"
    },
    {
      "inputs": [],
      "name": "createSecretProfile",
      "outputs": [],
      "stateMutability": "payable",
      "type": "function"
    },
    {
      "inputs": [
        {
          "internalType": "string",
          "name": "metadata",
          "type": "string"
        }
      ],
      "name": "deployReport",
      "outputs": [],
      "stateMutability": "nonpayable",
      "type": "function"
    },
    {
      "inputs": [],
      "name": "numReports",
      "outputs": [
        {
          "internalType": "uint256",
          "name": "",
          "type": "uint256"
        }
      ],
      "stateMutability": "view",
      "type": "function"
    },
    {
      "inputs": [],
      "name": "numUsers",
      "outputs": [
        {
          "internalType": "uint256",
          "name": "",
          "type": "uint256"
        }
      ],
      "stateMutability": "view",
      "type": "function"
    },
    {
      "inputs": [],
      "name": "owner",
      "outputs": [
        {
          "internalType": "address",
          "name": "",
          "type": "address"
        }
      ],
      "stateMutability": "view",
      "type": "function"
    },
    {
      "inputs": [
        {
          "internalType": "uint256",
          "name": "",
          "type": "uint256"
        }
      ],
      "name": "userAddresses",
      "outputs": [
        {
          "internalType": "address",
          "name": "",
          "type": "address"
        }
      ],
      "stateMutability": "view",
      "type": "function"
    },
    {
      "inputs": [
        {
          "internalType": "address",
          "name": "",
          "type": "address"
        },
        {
          "internalType": "uint256",
          "name": "",
          "type": "uint256"
        }
      ],
      "name": "userReportsContractIDs",
      "outputs": [
        {
          "internalType": "address",
          "name": "",
          "type": "address"
        }
      ],
      "stateMutability": "view",
      "type": "function"
    }
  ],
  "transactionHash": "0x6e8643505bed8c4cd549990cfa7eb2106aa660a5640ca2b08dbd3991e8b92a8a",
  "args": [
    "0x6c03F36B57Ad95aeAC06ad1dD100da00d4936aF5"
  ],
  "numDeployments": 2,
  "solcInputHash": "74d95d7d31da9d366b3f34d53804e3c8",
  "bytecode": "0x60a060405260008055600060015534801561001957600080fd5b5060405161135b38038061135b83398101604081905261003891610049565b6001600160a01b0316608052610079565b60006020828403121561005b57600080fd5b81516001600160a01b038116811461007257600080fd5b9392505050565b6080516112c7610094600039600061015101526112c76000f3fe608060405260043610620000795760003560e01c8063608e4da91162000054578063608e4da9146200010e5780638821e58814620001335780638da5cb5b146200013d578063a24ede26146200017357600080fd5b806304764b4c146200007e57806319a50f4914620000a5578063502c9bd514620000d0575b600080fd5b3480156200008b57600080fd5b50620000a36200009d366004620006b3565b6200018b565b005b348015620000b257600080fd5b50620000bd60005481565b6040519081526020015b60405180910390f35b348015620000dd57600080fd5b50620000f5620000ef3660046200076e565b620002f2565b6040516001600160a01b039091168152602001620000c7565b3480156200011b57600080fd5b50620000f56200012d36600462000788565b6200031d565b620000a362000356565b3480156200014a57600080fd5b50620000f57f000000000000000000000000000000000000000000000000000000000000000081565b3480156200018057600080fd5b50620000bd60015481565b42620001973362000486565b15620002225760405162461bcd60e51b815260206004820152604960248201527f596f7520646f206e6f74206861766520612070726f66696c65206f6e2048757360448201527f682e20506c6561736520637265617465206f6e65206265666f7265206d6f76696064820152686e672061686561642160b81b608482015260a4015b60405180910390fd5b60006200029b600083604051806020016200023d906200060e565b601f1982820381018352601f9091011660408190526001546200026691899190602001620007e8565b60408051601f198184030181529082905262000286929160200162000825565b604051602081830303815290604052620004fd565b336000908152600260209081526040822080546001808201835591845291832090910180546001600160a01b0319166001600160a01b038516179055805492935090620002e88362000858565b9190505550505050565b600381815481106200030357600080fd5b6000918252602090912001546001600160a01b0316905081565b600260205281600052604060002081815481106200033a57600080fd5b6000918252602090912001546001600160a01b03169150829050565b620003613362000486565b620003ca5760405162461bcd60e51b815260206004820152603260248201527f596f75206861766520616c7265616479206372656174656420612070726f66696044820152716c652c20706c65617365206c6f6720696e2160701b606482015260840162000219565b600080549080620003db8362000858565b90915550506040805160008082526020808301808552338352600290915292902090516200040a92906200061c565b506003805460018101825560009182527fc2575a0e9e593c00f959f8c92f12db2869c3395a3b0502d05e2516446f71f85b0180546001600160a01b0319163390811790915590546040519081527fcb939889322fed25104a5d8945bde5162563412a1fd718946cdcacb03088ea089060200160405180910390a2565b60006001815b600354811080156200049b5750815b15620004f657836001600160a01b031660038281548110620004c157620004c162000880565b6000918252602090912001546001600160a01b031603620004e157600091505b80620004ed8162000858565b9150506200048c565b5092915050565b600083471015620005515760405162461bcd60e51b815260206004820152601d60248201527f437265617465323a20696e73756666696369656e742062616c616e6365000000604482015260640162000219565b8151600003620005a45760405162461bcd60e51b815260206004820181905260248201527f437265617465323a2062797465636f6465206c656e677468206973207a65726f604482015260640162000219565b8282516020840186f590506001600160a01b038116620006075760405162461bcd60e51b815260206004820152601960248201527f437265617465323a204661696c6564206f6e206465706c6f7900000000000000604482015260640162000219565b9392505050565b6109fb806200089783390190565b82805482825590600052602060002090810192821562000674579160200282015b828111156200067457825182546001600160a01b0319166001600160a01b039091161782556020909201916001909101906200063d565b506200068292915062000686565b5090565b5b8082111562000682576000815560010162000687565b634e487b7160e01b600052604160045260246000fd5b600060208284031215620006c657600080fd5b813567ffffffffffffffff80821115620006df57600080fd5b818401915084601f830112620006f457600080fd5b8135818111156200070957620007096200069d565b604051601f8201601f19908116603f011681019083821181831017156200073457620007346200069d565b816040528281528760208487010111156200074e57600080fd5b826020860160208301376000928101602001929092525095945050505050565b6000602082840312156200078157600080fd5b5035919050565b600080604083850312156200079c57600080fd5b82356001600160a01b0381168114620007b457600080fd5b946020939093013593505050565b60005b83811015620007df578181015183820152602001620007c5565b50506000910152565b604081526000835180604084015262000809816060850160208801620007c2565b602083019390935250601f91909101601f191601606001919050565b6000835162000839818460208801620007c2565b8351908301906200084f818360208801620007c2565b01949350505050565b6000600182016200087957634e487b7160e01b600052601160045260246000fd5b5060010190565b634e487b7160e01b600052603260045260246000fdfe60806040523480156200001157600080fd5b50604051620009fb380380620009fb83398101604081905262000034916200006f565b6000620000428282620001d3565b50506000600181905560028190556003556200029f565b634e487b7160e01b600052604160045260246000fd5b600060208083850312156200008357600080fd5b82516001600160401b03808211156200009b57600080fd5b818501915085601f830112620000b057600080fd5b815181811115620000c557620000c562000059565b604051601f8201601f19908116603f01168101908382118183101715620000f057620000f062000059565b8160405282815288868487010111156200010957600080fd5b600093505b828410156200012d57848401860151818501870152928501926200010e565b600086848301015280965050505050505092915050565b600181811c908216806200015957607f821691505b6020821081036200017a57634e487b7160e01b600052602260045260246000fd5b50919050565b601f821115620001ce57600081815260208120601f850160051c81016020861015620001a95750805b601f850160051c820191505b81811015620001ca57828155600101620001b5565b5050505b505050565b81516001600160401b03811115620001ef57620001ef62000059565b620002078162000200845462000144565b8462000180565b602080601f8311600181146200023f5760008415620002265750858301515b600019600386901b1c1916600185901b178555620001ca565b600085815260208120601f198616915b8281101562000270578886015182559484019460019091019084016200024f565b50858210156200028f5787850151600019600388901b60f8161c191681555b5050505050600190811b01905550565b61074c80620002af6000396000f3fe608060405234801561001057600080fd5b506004361061007d5760003560e01c80637d89c42f1161005b5780637d89c42f146100c6578063942fcb98146100e8578063ae5ff905146100f1578063b85a6a201461010457600080fd5b80631086d35314610082578063283b7ab2146100975780633c6d6e9c146100aa575b600080fd5b61009561009036600461040b565b61010d565b005b6100956100a536600461040b565b6101a5565b6100b360025481565b6040519081526020015b60405180910390f35b6100d96100d436600461040b565b610231565b6040516100bd9392919061046a565b6100b360015481565b6100956100ff366004610542565b610364565b6100b360035481565b6003548111156101595760405162461bcd60e51b8152602060048201526012602482015271125b9d985b1a590818dbdb5b595b9d08125160721b60448201526064015b60405180910390fd5b60018054906000610169836105a6565b90915550506040518181527f33c626bcfacbb176cef837b2d46e679b8bee0608fb3c95449979d05159aba6c8906020015b60405180910390a150565b6003548111156101ec5760405162461bcd60e51b8152602060048201526012602482015271125b9d985b1a590818dbdb5b595b9d08125160721b6044820152606401610150565b600280549060006101fc836105a6565b90915550506040518181527fe4d433a582c5beaaa4e7e7ea44b8c65ac70ea8d03ec4addbdce1190ef1b04bfe9060200161019a565b60046020526000908152604090208054600182018054919291610253906105cd565b80601f016020809104026020016040519081016040528092919081815260200182805461027f906105cd565b80156102cc5780601f106102a1576101008083540402835291602001916102cc565b820191906000526020600020905b8154815290600101906020018083116102af57829003601f168201915b5050505050908060020180546102e1906105cd565b80601f016020809104026020016040519081016040528092919081815260200182805461030d906105cd565b801561035a5780601f1061032f5761010080835404028352916020019161035a565b820191906000526020600020905b81548152906001019060200180831161033d57829003601f168201915b5050505050905083565b60038054906000610374836105a6565b90915550506040805160608101825260035480825260208083018681528385018690526000928352600490915292902081518155915190919060018201906103bc9082610656565b50604082015160028201906103d19082610656565b50506040513381527fe4abbfdaa2a811535fccf567af7ff39cccbaa1e3a26c721413d1257db3d5ab9e915060200160405180910390a15050565b60006020828403121561041d57600080fd5b5035919050565b6000815180845260005b8181101561044a5760208185018101518683018201520161042e565b506000602082860101526020601f19601f83011685010191505092915050565b8381526060602082015260006104836060830185610424565b82810360408401526104958185610424565b9695505050505050565b634e487b7160e01b600052604160045260246000fd5b600082601f8301126104c657600080fd5b813567ffffffffffffffff808211156104e1576104e161049f565b604051601f8301601f19908116603f011681019082821181831017156105095761050961049f565b8160405283815286602085880101111561052257600080fd5b836020870160208301376000602085830101528094505050505092915050565b6000806040838503121561055557600080fd5b823567ffffffffffffffff8082111561056d57600080fd5b610579868387016104b5565b9350602085013591508082111561058f57600080fd5b5061059c858286016104b5565b9150509250929050565b6000600182016105c657634e487b7160e01b600052601160045260246000fd5b5060010190565b600181811c908216806105e157607f821691505b60208210810361060157634e487b7160e01b600052602260045260246000fd5b50919050565b601f82111561065157600081815260208120601f850160051c8101602086101561062e5750805b601f850160051c820191505b8181101561064d5782815560010161063a565b5050505b505050565b815167ffffffffffffffff8111156106705761067061049f565b6106848161067e84546105cd565b84610607565b602080601f8311600181146106b957600084156106a15750858301515b600019600386901b1c1916600185901b17855561064d565b600085815260208120601f198616915b828110156106e8578886015182559484019460019091019084016106c9565b50858210156107065787850151600019600388901b60f8161c191681555b5050505050600190811b0190555056fea2646970667358221220053df34260754fab7fd2e8f787ef2da4b4a5c15c9354baf1d93a92b9a24e72c264736f6c63430008110033a26469706673582212207ccfc24f29e28d9919eacc3452c76f101bface28b807737d4e5f5d90bfab597264736f6c63430008110033",
  "devdoc": {
    "kind": "dev",
    "methods": {},
    "version": 1
  },
  "userdoc": {
    "kind": "user",
    "methods": {},
    "version": 1
  },
  "storageLayout": {
    "storage": [
      {
        "astId": 90,
        "contract": "contracts/HushZKFactory.sol:HushZKFactory",
        "label": "numUsers",
        "offset": 0,
        "slot": "0",
        "type": "t_uint256"
      },
      {
        "astId": 93,
        "contract": "contracts/HushZKFactory.sol:HushZKFactory",
        "label": "numReports",
        "offset": 0,
        "slot": "1",
        "type": "t_uint256"
      },
      {
        "astId": 98,
        "contract": "contracts/HushZKFactory.sol:HushZKFactory",
        "label": "userReportsContractIDs",
        "offset": 0,
        "slot": "2",
        "type": "t_mapping(t_address,t_array(t_address)dyn_storage)"
      },
      {
        "astId": 101,
        "contract": "contracts/HushZKFactory.sol:HushZKFactory",
        "label": "userAddresses",
        "offset": 0,
        "slot": "3",
        "type": "t_array(t_address)dyn_storage"
      }
    ],
    "types": {
      "t_address": {
        "encoding": "inplace",
        "label": "address",
        "numberOfBytes": "20"
      },
      "t_array(t_address)dyn_storage": {
        "base": "t_address",
        "encoding": "dynamic_array",
        "label": "address[]",
        "numberOfBytes": "32"
      },
      "t_mapping(t_address,t_array(t_address)dyn_storage)": {
        "encoding": "mapping",
        "key": "t_address",
        "label": "mapping(address => address[])",
        "numberOfBytes": "32",
        "value": "t_array(t_address)dyn_storage"
      },
      "t_uint256": {
        "encoding": "inplace",
        "label": "uint256",
        "numberOfBytes": "32"
      }
    }
  }
}