{
  "fileName": "Vault.sol",
  "contractName": "Vault",
  "source": "// contracts/Vault.sol\r\npragma solidity ^0.5.0;\r\n\r\nimport \"@openzeppelin/upgrades/contracts/Initializable.sol\";\r\n\r\ncontract Vault is Initializable {\r\n    address payable owner;\r\n\r\n    function initialize(address payable _owner) initializer public {\r\n        owner = _owner;\r\n    }\r\n\r\n    function withdraw() public {\r\n        require(owner == msg.sender);\r\n        owner.transfer(address(this).balance);\r\n    }\r\n}",
  "sourcePath": "contracts\\Vault.sol",
  "abi": [
    {
      "constant": false,
      "inputs": [
        {
          "internalType": "address payable",
          "name": "_owner",
          "type": "address"
        }
      ],
      "name": "initialize",
      "outputs": [],
      "payable": false,
      "stateMutability": "nonpayable",
      "type": "function"
    },
    {
      "constant": false,
      "inputs": [],
      "name": "withdraw",
      "outputs": [],
      "payable": false,
      "stateMutability": "nonpayable",
      "type": "function"
    }
  ],
  "bytecode": "0x608060405234801561001057600080fd5b50610320806100206000396000f3fe608060405234801561001057600080fd5b50600436106100365760003560e01c80633ccfd60b1461003b578063c4d66de814610045575b600080fd5b610043610089565b005b6100876004803603602081101561005b57600080fd5b81019080803573ffffffffffffffffffffffffffffffffffffffff169060200190929190505050610165565b005b3373ffffffffffffffffffffffffffffffffffffffff16603360009054906101000a900473ffffffffffffffffffffffffffffffffffffffff1673ffffffffffffffffffffffffffffffffffffffff16146100e357600080fd5b603360009054906101000a900473ffffffffffffffffffffffffffffffffffffffff1673ffffffffffffffffffffffffffffffffffffffff166108fc3073ffffffffffffffffffffffffffffffffffffffff16319081150290604051600060405180830381858888f19350505050158015610162573d6000803e3d6000fd5b50565b600060019054906101000a900460ff168061018457506101836102a6565b5b8061019b57506000809054906101000a900460ff16155b6101f0576040517f08c379a000000000000000000000000000000000000000000000000000000000815260040180806020018281038252602e8152602001806102be602e913960400191505060405180910390fd5b60008060019054906101000a900460ff161590508015610240576001600060016101000a81548160ff02191690831515021790555060016000806101000a81548160ff0219169083151502179055505b81603360006101000a81548173ffffffffffffffffffffffffffffffffffffffff021916908373ffffffffffffffffffffffffffffffffffffffff16021790555080156102a25760008060016101000a81548160ff0219169083151502179055505b5050565b6000803090506000813b905060008114925050509056fe436f6e747261637420696e7374616e63652068617320616c7265616479206265656e20696e697469616c697a6564a265627a7a72315820fcdb745e70414b5532c52a39d346c37b4fc2cfb75f3935ce007a02a4ebc9cbc764736f6c63430005110032",
  "compiler": {
    "name": "solc",
    "version": "0.5.17+commit.d19bba13.Emscripten.clang",
    "optimizer": {
      "enabled": false,
      "runs": 200
    },
    "evmVersion": "petersburg"
  }
}